{
  "_format": "hh-sol-artifact-1",
  "contractName": "PaperfiFactory",
  "sourceName": "contracts/Paperfi.sol",
  "abi": [
    {
      "anonymous": false,
      "inputs": [
        {
          "indexed": false,
          "internalType": "string",
          "name": "title",
          "type": "string"
        },
        {
          "indexed": false,
          "internalType": "uint256",
          "name": "requiredAmount",
          "type": "uint256"
        },
        {
          "indexed": true,
          "internalType": "address",
          "name": "owner",
          "type": "address"
        },
        {
          "indexed": false,
          "internalType": "address",
          "name": "paperAddress",
          "type": "address"
        },
        {
          "indexed": false,
          "internalType": "string",
          "name": "imageURI",
          "type": "string"
        },
        {
          "indexed": true,
          "internalType": "uint256",
          "name": "timestamp",
          "type": "uint256"
        },
        {
          "indexed": true,
          "internalType": "string",
          "name": "category",
          "type": "string"
        }
      ],
      "name": "paperPublished",
      "type": "event"
    },
    {
      "inputs": [
        {
          "internalType": "string",
          "name": "_title",
          "type": "string"
        },
        {
          "internalType": "uint256",
          "name": "_requiredAmount",
          "type": "uint256"
        },
        {
          "internalType": "string",
          "name": "_imageURI",
          "type": "string"
        },
        {
          "internalType": "string",
          "name": "_category",
          "type": "string"
        },
        {
          "internalType": "string",
          "name": "_desc",
          "type": "string"
        }
      ],
      "name": "publishPaper",
      "outputs": [],
      "stateMutability": "nonpayable",
      "type": "function"
    },
    {
      "inputs": [
        {
          "internalType": "uint256",
          "name": "",
          "type": "uint256"
        }
      ],
      "name": "publishedPapers",
      "outputs": [
        {
          "internalType": "address",
          "name": "",
          "type": "address"
        }
      ],
      "stateMutability": "view",
      "type": "function"
    }
  ],
  "bytecode": "0x608060405234801561001057600080fd5b506114c6806100206000396000f3fe60806040523480156200001157600080fd5b50600436106200003a5760003560e01c806330f0befc146200003f57806339f407e5146200005f575b600080fd5b6200005d6004803603810190620000579190620003b1565b62000095565b005b6200007d6004803603810190620000779190620004b5565b620001b2565b6040516200008c91906200052c565b60405180910390f35b600085858584604051620000a990620001f2565b620000b89493929190620005ed565b604051809103906000f080158015620000d5573d6000803e3d6000fd5b5090506000819080600181540180825580915050600190039060005260206000200160009091909190916101000a81548173ffffffffffffffffffffffffffffffffffffffff021916908373ffffffffffffffffffffffffffffffffffffffff160217905550826040516200014b919062000691565b6040518091039020423373ffffffffffffffffffffffffffffffffffffffff167f95a7c21df3fb4a44bd2d43243a5404810ced2b437e51e0a092ac4f428ad5ee4e8989868a604051620001a29493929190620006aa565b60405180910390a4505050505050565b60008181548110620001c357600080fd5b906000526020600020016000915054906101000a900473ffffffffffffffffffffffffffffffffffffffff1681565b610d8b806200070683390190565b6000604051905090565b600080fd5b600080fd5b600080fd5b600080fd5b6000601f19601f8301169050919050565b7f4e487b7100000000000000000000000000000000000000000000000000000000600052604160045260246000fd5b62000269826200021e565b810181811067ffffffffffffffff821117156200028b576200028a6200022f565b5b80604052505050565b6000620002a062000200565b9050620002ae82826200025e565b919050565b600067ffffffffffffffff821115620002d157620002d06200022f565b5b620002dc826200021e565b9050602081019050919050565b82818337600083830152505050565b60006200030f6200030984620002b3565b62000294565b9050828152602081018484840111156200032e576200032d62000219565b5b6200033b848285620002e9565b509392505050565b600082601f8301126200035b576200035a62000214565b5b81356200036d848260208601620002f8565b91505092915050565b6000819050919050565b6200038b8162000376565b81146200039757600080fd5b50565b600081359050620003ab8162000380565b92915050565b600080600080600060a08688031215620003d057620003cf6200020a565b5b600086013567ffffffffffffffff811115620003f157620003f06200020f565b5b620003ff8882890162000343565b955050602062000412888289016200039a565b945050604086013567ffffffffffffffff8111156200043657620004356200020f565b5b620004448882890162000343565b935050606086013567ffffffffffffffff8111156200046857620004676200020f565b5b620004768882890162000343565b925050608086013567ffffffffffffffff8111156200049a57620004996200020f565b5b620004a88882890162000343565b9150509295509295909350565b600060208284031215620004ce57620004cd6200020a565b5b6000620004de848285016200039a565b91505092915050565b600073ffffffffffffffffffffffffffffffffffffffff82169050919050565b60006200051482620004e7565b9050919050565b620005268162000507565b82525050565b60006020820190506200054360008301846200051b565b92915050565b600081519050919050565b600082825260208201905092915050565b60005b838110156200058557808201518184015260208101905062000568565b8381111562000595576000848401525b50505050565b6000620005a88262000549565b620005b4818562000554565b9350620005c681856020860162000565565b620005d1816200021e565b840191505092915050565b620005e78162000376565b82525050565b600060808201905081810360008301526200060981876200059b565b90506200061a6020830186620005dc565b81810360408301526200062e81856200059b565b905081810360608301526200064481846200059b565b905095945050505050565b600081905092915050565b6000620006678262000549565b6200067381856200064f565b93506200068581856020860162000565565b80840191505092915050565b60006200069f82846200065a565b915081905092915050565b60006080820190508181036000830152620006c681876200059b565b9050620006d76020830186620005dc565b620006e660408301856200051b565b8181036060830152620006fa81846200059b565b90509594505050505056fe60806040523480156200001157600080fd5b5060405162000d8b38038062000d8b83398181016040528101906200003791906200035c565b83600090805190602001906200004f929190620000d4565b508260018190555081600290805190602001906200006f929190620000d4565b50806003908051906020019062000088929190620000d4565b5033600460006101000a81548173ffffffffffffffffffffffffffffffffffffffff021916908373ffffffffffffffffffffffffffffffffffffffff1602179055505050505062000490565b828054620000e2906200045a565b90600052602060002090601f01602090048101928262000106576000855562000152565b82601f106200012157805160ff191683800117855562000152565b8280016001018555821562000152579182015b828111156200015157825182559160200191906001019062000134565b5b50905062000161919062000165565b5090565b5b808211156200018057600081600090555060010162000166565b5090565b6000604051905090565b600080fd5b600080fd5b600080fd5b600080fd5b6000601f19601f8301169050919050565b7f4e487b7100000000000000000000000000000000000000000000000000000000600052604160045260246000fd5b620001ed82620001a2565b810181811067ffffffffffffffff821117156200020f576200020e620001b3565b5b80604052505050565b60006200022462000184565b9050620002328282620001e2565b919050565b600067ffffffffffffffff821115620002555762000254620001b3565b5b6200026082620001a2565b9050602081019050919050565b60005b838110156200028d57808201518184015260208101905062000270565b838111156200029d576000848401525b50505050565b6000620002ba620002b48462000237565b62000218565b905082815260208101848484011115620002d957620002d86200019d565b5b620002e68482856200026d565b509392505050565b600082601f83011262000306576200030562000198565b5b815162000318848260208601620002a3565b91505092915050565b6000819050919050565b620003368162000321565b81146200034257600080fd5b50565b60008151905062000356816200032b565b92915050565b600080600080608085870312156200037957620003786200018e565b5b600085015167ffffffffffffffff8111156200039a576200039962000193565b5b620003a887828801620002ee565b9450506020620003bb8782880162000345565b935050604085015167ffffffffffffffff811115620003df57620003de62000193565b5b620003ed87828801620002ee565b925050606085015167ffffffffffffffff81111562000411576200041062000193565b5b6200041f87828801620002ee565b91505092959194509250565b7f4e487b7100000000000000000000000000000000000000000000000000000000600052602260045260246000fd5b600060028204905060018216806200047357607f821691505b602082108114156200048a57620004896200042b565b5b50919050565b6108eb80620004a06000396000f3fe6080604052600436106100705760003560e01c80637284e4161161004e5780637284e416146100f65780638da5cb5b14610121578063ed88c68e1461014c578063f3ccaac01461015657610070565b806348b9ef40146100755780634a79d50c146100a05780634d012f58146100cb575b600080fd5b34801561008157600080fd5b5061008a610181565b6040516100979190610559565b60405180910390f35b3480156100ac57600080fd5b506100b5610187565b6040516100c2919061060d565b60405180910390f35b3480156100d757600080fd5b506100e0610215565b6040516100ed9190610559565b60405180910390f35b34801561010257600080fd5b5061010b61021b565b604051610118919061060d565b60405180910390f35b34801561012d57600080fd5b506101366102a9565b6040516101439190610670565b60405180910390f35b6101546102cf565b005b34801561016257600080fd5b5061016b6104b2565b604051610178919061060d565b60405180910390f35b60015481565b60008054610194906106ba565b80601f01602080910402602001604051908101604052809291908181526020018280546101c0906106ba565b801561020d5780601f106101e25761010080835404028352916020019161020d565b820191906000526020600020905b8154815290600101906020018083116101f057829003601f168201915b505050505081565b60055481565b60038054610228906106ba565b80601f0160208091040260200160405190810160405280929190818152602001828054610254906106ba565b80156102a15780601f10610276576101008083540402835291602001916102a1565b820191906000526020600020905b81548152906001019060200180831161028457829003601f168201915b505050505081565b600460009054906101000a900473ffffffffffffffffffffffffffffffffffffffff1681565b60055460015411610315576040517f08c379a000000000000000000000000000000000000000000000000000000000815260040161030c90610738565b60405180910390fd5b60003411610358576040517f08c379a000000000000000000000000000000000000000000000000000000000815260040161034f906107a4565b60405180910390fd5b600460009054906101000a900473ffffffffffffffffffffffffffffffffffffffff1673ffffffffffffffffffffffffffffffffffffffff163373ffffffffffffffffffffffffffffffffffffffff1614156103e9576040517f08c379a00000000000000000000000000000000000000000000000000000000081526004016103e090610810565b60405180910390fd5b600460009054906101000a900473ffffffffffffffffffffffffffffffffffffffff1673ffffffffffffffffffffffffffffffffffffffff166108fc349081150290604051600060405180830381858888f19350505050158015610451573d6000803e3d6000fd5b503460056000828254610464919061085f565b9250508190555042343373ffffffffffffffffffffffffffffffffffffffff167fe6add99d06d9ad7fc456e746aa162eed6211c5002ef2dacdd67b8d2016822fba60405160405180910390a4565b600280546104bf906106ba565b80601f01602080910402602001604051908101604052809291908181526020018280546104eb906106ba565b80156105385780601f1061050d57610100808354040283529160200191610538565b820191906000526020600020905b81548152906001019060200180831161051b57829003601f168201915b505050505081565b6000819050919050565b61055381610540565b82525050565b600060208201905061056e600083018461054a565b92915050565b600081519050919050565b600082825260208201905092915050565b60005b838110156105ae578082015181840152602081019050610593565b838111156105bd576000848401525b50505050565b6000601f19601f8301169050919050565b60006105df82610574565b6105e9818561057f565b93506105f9818560208601610590565b610602816105c3565b840191505092915050565b6000602082019050818103600083015261062781846105d4565b905092915050565b600073ffffffffffffffffffffffffffffffffffffffff82169050919050565b600061065a8261062f565b9050919050565b61066a8161064f565b82525050565b60006020820190506106856000830184610661565b92915050565b7f4e487b7100000000000000000000000000000000000000000000000000000000600052602260045260246000fd5b600060028204905060018216806106d257607f821691505b602082108114156106e6576106e561068b565b5b50919050565b7f726571756972642066756e64732066756c66696c6c6564000000000000000000600082015250565b600061072260178361057f565b915061072d826106ec565b602082019050919050565b6000602082019050818103600083015261075181610715565b9050919050565b7f61646420736f6d65206d6f72652066756e647300000000000000000000000000600082015250565b600061078e60138361057f565b915061079982610758565b602082019050919050565b600060208201905081810360008301526107bd81610781565b9050919050565b7f63616e277420646f6e61746520746f20796f757273656c660000000000000000600082015250565b60006107fa60188361057f565b9150610805826107c4565b602082019050919050565b60006020820190508181036000830152610829816107ed565b9050919050565b7f4e487b7100000000000000000000000000000000000000000000000000000000600052601160045260246000fd5b600061086a82610540565b915061087583610540565b9250827fffffffffffffffffffffffffffffffffffffffffffffffffffffffffffffffff038211156108aa576108a9610830565b5b82820190509291505056fea2646970667358221220d763b834cc6a5a0e98af43080a3d8ef11b742ee3c1105e172e58446e473b37a164736f6c63430008090033a26469706673582212201136ee15114c5593912cfeb2197610f1f7c3c02ec49b06a26e0e6ad6b22a520d64736f6c63430008090033",
  "linkReferences": {},
  "deployedLinkReferences": {}
}