{
  "_format": "hh-sol-artifact-1",
  "contractName": "PaperfiFactory",
  "sourceName": "contracts/Paperfi.sol",
  "abi": [
    {
      "anonymous": false,
      "inputs": [
        {
          "indexed": false,
          "internalType": "string",
          "name": "title",
          "type": "string"
        },
        {
          "indexed": false,
          "internalType": "string",
          "name": "author",
          "type": "string"
        },
        {
          "indexed": false,
          "internalType": "uint256",
          "name": "requiredAmount",
          "type": "uint256"
        },
        {
          "indexed": true,
          "internalType": "address",
          "name": "owner",
          "type": "address"
        },
        {
          "indexed": false,
          "internalType": "address",
          "name": "paperAddress",
          "type": "address"
        },
        {
          "indexed": false,
          "internalType": "string",
          "name": "imageURI",
          "type": "string"
        },
        {
          "indexed": false,
          "internalType": "string",
          "name": "pdfURI",
          "type": "string"
        },
        {
          "indexed": false,
          "internalType": "string",
          "name": "assetURI",
          "type": "string"
        },
        {
          "indexed": true,
          "internalType": "uint256",
          "name": "timestamp",
          "type": "uint256"
        },
        {
          "indexed": true,
          "internalType": "string",
          "name": "category",
          "type": "string"
        },
        {
          "indexed": false,
          "internalType": "string",
          "name": "categoryName",
          "type": "string"
        },
        {
          "indexed": false,
          "internalType": "uint256",
          "name": "purchaseAmount",
          "type": "uint256"
        }
      ],
      "name": "paperPublished",
      "type": "event"
    },
    {
      "inputs": [
        {
          "internalType": "string",
          "name": "_title",
          "type": "string"
        },
        {
          "internalType": "string",
          "name": "_author",
          "type": "string"
        },
        {
          "internalType": "uint256",
          "name": "_requiredAmount",
          "type": "uint256"
        },
        {
          "internalType": "string",
          "name": "_imageURI",
          "type": "string"
        },
        {
          "internalType": "string",
          "name": "_pdfURI",
          "type": "string"
        },
        {
          "internalType": "string",
          "name": "_assetURI",
          "type": "string"
        },
        {
          "internalType": "string",
          "name": "_category",
          "type": "string"
        },
        {
          "internalType": "string",
          "name": "_desc",
          "type": "string"
        },
        {
          "internalType": "uint256",
          "name": "_purchaseAmount",
          "type": "uint256"
        }
      ],
      "name": "publishPaper",
      "outputs": [],
      "stateMutability": "nonpayable",
      "type": "function"
    },
    {
      "inputs": [
        {
          "internalType": "uint256",
          "name": "",
          "type": "uint256"
        }
      ],
      "name": "publishedPapers",
      "outputs": [
        {
          "internalType": "address",
          "name": "",
          "type": "address"
        }
      ],
      "stateMutability": "view",
      "type": "function"
    }
  ],
  "bytecode": "0x608060405234801561001057600080fd5b50611ce8806100206000396000f3fe60806040523480156200001157600080fd5b50600436106200003a5760003560e01c806339f407e5146200003f5780636d580e531462000075575b600080fd5b6200005d600480360381019062000057919062000267565b62000095565b6040516200006c9190620002de565b60405180910390f35b6200009360048036038101906200008d91906200045d565b620000d5565b005b60008181548110620000a657600080fd5b906000526020600020016000915054906101000a900473ffffffffffffffffffffffffffffffffffffffff1681565b6000898989898989883389604051620000ee906200020a565b6200010299989796959493929190620006b9565b604051809103906000f0801580156200011f573d6000803e3d6000fd5b5090506000819080600181540180825580915050600190039060005260206000200160009091909190916101000a81548173ffffffffffffffffffffffffffffffffffffffff021916908373ffffffffffffffffffffffffffffffffffffffff16021790555083604051620001959190620007c4565b6040518091039020423373ffffffffffffffffffffffffffffffffffffffff167ff608fe898d9d3049027d9ffa30c0fef2faf7f1403d6d7ba42ff25e81dacf810d8d8d8d878e8e8e8e8d604051620001f699989796959493929190620007dd565b60405180910390a450505050505050505050565b61140c80620008a783390190565b6000604051905090565b600080fd5b600080fd5b6000819050919050565b62000241816200022c565b81146200024d57600080fd5b50565b600081359050620002618162000236565b92915050565b60006020828403121562000280576200027f62000222565b5b6000620002908482850162000250565b91505092915050565b600073ffffffffffffffffffffffffffffffffffffffff82169050919050565b6000620002c68262000299565b9050919050565b620002d881620002b9565b82525050565b6000602082019050620002f56000830184620002cd565b92915050565b600080fd5b600080fd5b6000601f19601f8301169050919050565b7f4e487b7100000000000000000000000000000000000000000000000000000000600052604160045260246000fd5b620003508262000305565b810181811067ffffffffffffffff8211171562000372576200037162000316565b5b80604052505050565b60006200038762000218565b905062000395828262000345565b919050565b600067ffffffffffffffff821115620003b857620003b762000316565b5b620003c38262000305565b9050602081019050919050565b82818337600083830152505050565b6000620003f6620003f0846200039a565b6200037b565b90508281526020810184848401111562000415576200041462000300565b5b62000422848285620003d0565b509392505050565b600082601f830112620004425762000441620002fb565b5b813562000454848260208601620003df565b91505092915050565b60008060008060008060008060006101208a8c03121562000483576200048262000222565b5b60008a013567ffffffffffffffff811115620004a457620004a362000227565b5b620004b28c828d016200042a565b99505060208a013567ffffffffffffffff811115620004d657620004d562000227565b5b620004e48c828d016200042a565b9850506040620004f78c828d0162000250565b97505060608a013567ffffffffffffffff8111156200051b576200051a62000227565b5b620005298c828d016200042a565b96505060808a013567ffffffffffffffff8111156200054d576200054c62000227565b5b6200055b8c828d016200042a565b95505060a08a013567ffffffffffffffff8111156200057f576200057e62000227565b5b6200058d8c828d016200042a565b94505060c08a013567ffffffffffffffff811115620005b157620005b062000227565b5b620005bf8c828d016200042a565b93505060e08a013567ffffffffffffffff811115620005e357620005e262000227565b5b620005f18c828d016200042a565b925050610100620006058c828d0162000250565b9150509295985092959850929598565b600081519050919050565b600082825260208201905092915050565b60005b838110156200065157808201518184015260208101905062000634565b8381111562000661576000848401525b50505050565b6000620006748262000615565b62000680818562000620565b93506200069281856020860162000631565b6200069d8162000305565b840191505092915050565b620006b3816200022c565b82525050565b6000610120820190508181036000830152620006d6818c62000667565b90508181036020830152620006ec818b62000667565b9050620006fd604083018a620006a8565b818103606083015262000711818962000667565b9050818103608083015262000727818862000667565b905081810360a08301526200073d818762000667565b905081810360c083015262000753818662000667565b90506200076460e0830185620002cd565b62000774610100830184620006a8565b9a9950505050505050505050565b600081905092915050565b60006200079a8262000615565b620007a6818562000782565b9350620007b881856020860162000631565b80840191505092915050565b6000620007d282846200078d565b915081905092915050565b6000610120820190508181036000830152620007fa818c62000667565b9050818103602083015262000810818b62000667565b905062000821604083018a620006a8565b620008306060830189620002cd565b818103608083015262000844818862000667565b905081810360a08301526200085a818762000667565b905081810360c083015262000870818662000667565b905081810360e083015262000886818562000667565b905062000898610100830184620006a8565b9a995050505050505050505056fe60806040523480156200001157600080fd5b506040516200140c3803806200140c833981810160405281019062000037919062000418565b88600090805190602001906200004f9291906200012b565b508760019080519060200190620000689291906200012b565b50866002819055508560039080519060200190620000889291906200012b565b508460049080519060200190620000a19291906200012b565b508360059080519060200190620000ba9291906200012b565b508260069080519060200190620000d39291906200012b565b5081600760006101000a81548173ffffffffffffffffffffffffffffffffffffffff021916908373ffffffffffffffffffffffffffffffffffffffff1602179055508060098190555050505050505050505062000616565b8280546200013990620005e0565b90600052602060002090601f0160209004810192826200015d5760008555620001a9565b82601f106200017857805160ff1916838001178555620001a9565b82800160010185558215620001a9579182015b82811115620001a85782518255916020019190600101906200018b565b5b509050620001b89190620001bc565b5090565b5b80821115620001d7576000816000905550600101620001bd565b5090565b6000604051905090565b600080fd5b600080fd5b600080fd5b600080fd5b6000601f19601f8301169050919050565b7f4e487b7100000000000000000000000000000000000000000000000000000000600052604160045260246000fd5b6200024482620001f9565b810181811067ffffffffffffffff821117156200026657620002656200020a565b5b80604052505050565b60006200027b620001db565b905062000289828262000239565b919050565b600067ffffffffffffffff821115620002ac57620002ab6200020a565b5b620002b782620001f9565b9050602081019050919050565b60005b83811015620002e4578082015181840152602081019050620002c7565b83811115620002f4576000848401525b50505050565b6000620003116200030b846200028e565b6200026f565b90508281526020810184848401111562000330576200032f620001f4565b5b6200033d848285620002c4565b509392505050565b600082601f8301126200035d576200035c620001ef565b5b81516200036f848260208601620002fa565b91505092915050565b6000819050919050565b6200038d8162000378565b81146200039957600080fd5b50565b600081519050620003ad8162000382565b92915050565b600073ffffffffffffffffffffffffffffffffffffffff82169050919050565b6000620003e082620003b3565b9050919050565b620003f281620003d3565b8114620003fe57600080fd5b50565b6000815190506200041281620003e7565b92915050565b60008060008060008060008060006101208a8c0312156200043e576200043d620001e5565b5b60008a015167ffffffffffffffff8111156200045f576200045e620001ea565b5b6200046d8c828d0162000345565b99505060208a015167ffffffffffffffff811115620004915762000490620001ea565b5b6200049f8c828d0162000345565b9850506040620004b28c828d016200039c565b97505060608a015167ffffffffffffffff811115620004d657620004d5620001ea565b5b620004e48c828d0162000345565b96505060808a015167ffffffffffffffff811115620005085762000507620001ea565b5b620005168c828d0162000345565b95505060a08a015167ffffffffffffffff8111156200053a5762000539620001ea565b5b620005488c828d0162000345565b94505060c08a015167ffffffffffffffff8111156200056c576200056b620001ea565b5b6200057a8c828d0162000345565b93505060e06200058d8c828d0162000401565b925050610100620005a18c828d016200039c565b9150509295985092959850929598565b7f4e487b7100000000000000000000000000000000000000000000000000000000600052602260045260246000fd5b60006002820490506001821680620005f957607f821691505b6020821081141562000610576200060f620005b1565b5b50919050565b610de680620006266000396000f3fe6080604052600436106100a75760003560e01c80638da5cb5b116100645780638da5cb5b1461018d578063a6c3e6b9146101b8578063c341853f146101e3578063d2d3d0161461020e578063ed88c68e14610239578063f3ccaac014610243576100a7565b806348b9ef40146100ac5780634a79d50c146100d75780634d012f581461010257806364edfbf01461012d57806371a97305146101375780637284e41614610162575b600080fd5b3480156100b857600080fd5b506100c161026e565b6040516100ce919061097c565b60405180910390f35b3480156100e357600080fd5b506100ec610274565b6040516100f99190610a30565b60405180910390f35b34801561010e57600080fd5b50610117610302565b604051610124919061097c565b60405180910390f35b610135610308565b005b34801561014357600080fd5b5061014c61048e565b6040516101599190610a30565b60405180910390f35b34801561016e57600080fd5b5061017761051c565b6040516101849190610a30565b60405180910390f35b34801561019957600080fd5b506101a26105aa565b6040516101af9190610a93565b60405180910390f35b3480156101c457600080fd5b506101cd6105d0565b6040516101da9190610a30565b60405180910390f35b3480156101ef57600080fd5b506101f861065e565b604051610205919061097c565b60405180910390f35b34801561021a57600080fd5b50610223610664565b6040516102309190610a30565b60405180910390f35b6102416106f2565b005b34801561024f57600080fd5b506102586108d5565b6040516102659190610a30565b60405180910390f35b60025481565b6000805461028190610add565b80601f01602080910402602001604051908101604052809291908181526020018280546102ad90610add565b80156102fa5780601f106102cf576101008083540402835291602001916102fa565b820191906000526020600020905b8154815290600101906020018083116102dd57829003601f168201915b505050505081565b60085481565b60095434101561034d576040517f08c379a000000000000000000000000000000000000000000000000000000000815260040161034490610b5b565b60405180910390fd5b600760009054906101000a900473ffffffffffffffffffffffffffffffffffffffff1673ffffffffffffffffffffffffffffffffffffffff163373ffffffffffffffffffffffffffffffffffffffff1614156103de576040517f08c379a00000000000000000000000000000000000000000000000000000000081526004016103d590610bc7565b60405180910390fd5b600760009054906101000a900473ffffffffffffffffffffffffffffffffffffffff1673ffffffffffffffffffffffffffffffffffffffff166108fc349081150290604051600060405180830381858888f19350505050158015610446573d6000803e3d6000fd5b5042343373ffffffffffffffffffffffffffffffffffffffff167f109133526b583e47d801bc268810886b787e27a293708c3ee3fa57f59328fa8e60405160405180910390a4565b6005805461049b90610add565b80601f01602080910402602001604051908101604052809291908181526020018280546104c790610add565b80156105145780601f106104e957610100808354040283529160200191610514565b820191906000526020600020905b8154815290600101906020018083116104f757829003601f168201915b505050505081565b6006805461052990610add565b80601f016020809104026020016040519081016040528092919081815260200182805461055590610add565b80156105a25780601f10610577576101008083540402835291602001916105a2565b820191906000526020600020905b81548152906001019060200180831161058557829003601f168201915b505050505081565b600760009054906101000a900473ffffffffffffffffffffffffffffffffffffffff1681565b600180546105dd90610add565b80601f016020809104026020016040519081016040528092919081815260200182805461060990610add565b80156106565780601f1061062b57610100808354040283529160200191610656565b820191906000526020600020905b81548152906001019060200180831161063957829003601f168201915b505050505081565b60095481565b6004805461067190610add565b80601f016020809104026020016040519081016040528092919081815260200182805461069d90610add565b80156106ea5780601f106106bf576101008083540402835291602001916106ea565b820191906000526020600020905b8154815290600101906020018083116106cd57829003601f168201915b505050505081565b60085460025411610738576040517f08c379a000000000000000000000000000000000000000000000000000000000815260040161072f90610c33565b60405180910390fd5b6000341161077b576040517f08c379a000000000000000000000000000000000000000000000000000000000815260040161077290610c9f565b60405180910390fd5b600760009054906101000a900473ffffffffffffffffffffffffffffffffffffffff1673ffffffffffffffffffffffffffffffffffffffff163373ffffffffffffffffffffffffffffffffffffffff16141561080c576040517f08c379a000000000000000000000000000000000000000000000000000000000815260040161080390610d0b565b60405180910390fd5b600760009054906101000a900473ffffffffffffffffffffffffffffffffffffffff1673ffffffffffffffffffffffffffffffffffffffff166108fc349081150290604051600060405180830381858888f19350505050158015610874573d6000803e3d6000fd5b5034600860008282546108879190610d5a565b9250508190555042343373ffffffffffffffffffffffffffffffffffffffff167fe6add99d06d9ad7fc456e746aa162eed6211c5002ef2dacdd67b8d2016822fba60405160405180910390a4565b600380546108e290610add565b80601f016020809104026020016040519081016040528092919081815260200182805461090e90610add565b801561095b5780601f106109305761010080835404028352916020019161095b565b820191906000526020600020905b81548152906001019060200180831161093e57829003601f168201915b505050505081565b6000819050919050565b61097681610963565b82525050565b6000602082019050610991600083018461096d565b92915050565b600081519050919050565b600082825260208201905092915050565b60005b838110156109d15780820151818401526020810190506109b6565b838111156109e0576000848401525b50505050565b6000601f19601f8301169050919050565b6000610a0282610997565b610a0c81856109a2565b9350610a1c8185602086016109b3565b610a25816109e6565b840191505092915050565b60006020820190508181036000830152610a4a81846109f7565b905092915050565b600073ffffffffffffffffffffffffffffffffffffffff82169050919050565b6000610a7d82610a52565b9050919050565b610a8d81610a72565b82525050565b6000602082019050610aa86000830184610a84565b92915050565b7f4e487b7100000000000000000000000000000000000000000000000000000000600052602260045260246000fd5b60006002820490506001821680610af557607f821691505b60208210811415610b0957610b08610aae565b5b50919050565b7f4e6f7420656e6f7567682066756e647300000000000000000000000000000000600082015250565b6000610b456010836109a2565b9150610b5082610b0f565b602082019050919050565b60006020820190508181036000830152610b7481610b38565b9050919050565b7f63616e277420707572636861736520796f7572206f776e206173736574730000600082015250565b6000610bb1601e836109a2565b9150610bbc82610b7b565b602082019050919050565b60006020820190508181036000830152610be081610ba4565b9050919050565b7f72657175697265642066756e64732066756c66696c6c65640000000000000000600082015250565b6000610c1d6018836109a2565b9150610c2882610be7565b602082019050919050565b60006020820190508181036000830152610c4c81610c10565b9050919050565b7f61646420736f6d65206d6f72652066756e647300000000000000000000000000600082015250565b6000610c896013836109a2565b9150610c9482610c53565b602082019050919050565b60006020820190508181036000830152610cb881610c7c565b9050919050565b7f63616e277420646f6e61746520746f20796f757273656c660000000000000000600082015250565b6000610cf56018836109a2565b9150610d0082610cbf565b602082019050919050565b60006020820190508181036000830152610d2481610ce8565b9050919050565b7f4e487b7100000000000000000000000000000000000000000000000000000000600052601160045260246000fd5b6000610d6582610963565b9150610d7083610963565b9250827fffffffffffffffffffffffffffffffffffffffffffffffffffffffffffffffff03821115610da557610da4610d2b565b5b82820190509291505056fea2646970667358221220e67a515a486495da1c138b0a45c0ab3ef3826ce5251d135fdb6be082d586e8fd64736f6c63430008090033a2646970667358221220fd8003c26b9cc33caa7adb193d1c7710ecd00b750589c24de13efa2fae337ac964736f6c63430008090033",
  "linkReferences": {},
  "deployedLinkReferences": {}
}