{
  "_format": "hh-sol-artifact-1",
  "contractName": "Paperfi",
  "sourceName": "contracts/Paperfi.sol",
  "abi": [
    {
      "inputs": [
        {
          "internalType": "string",
          "name": "_title",
          "type": "string"
        },
        {
          "internalType": "string",
          "name": "_author",
          "type": "string"
        },
        {
          "internalType": "uint256",
          "name": "_requiredAmount",
          "type": "uint256"
        },
        {
          "internalType": "string",
          "name": "_imageURI",
          "type": "string"
        },
        {
          "internalType": "string",
          "name": "_pdfURI",
          "type": "string"
        },
        {
          "internalType": "string",
          "name": "_desc",
          "type": "string"
        }
      ],
      "stateMutability": "nonpayable",
      "type": "constructor"
    },
    {
      "anonymous": false,
      "inputs": [
        {
          "indexed": true,
          "internalType": "address",
          "name": "donar",
          "type": "address"
        },
        {
          "indexed": true,
          "internalType": "uint256",
          "name": "amount",
          "type": "uint256"
        },
        {
          "indexed": true,
          "internalType": "uint256",
          "name": "timestamp",
          "type": "uint256"
        }
      ],
      "name": "donated",
      "type": "event"
    },
    {
      "inputs": [],
      "name": "author",
      "outputs": [
        {
          "internalType": "string",
          "name": "",
          "type": "string"
        }
      ],
      "stateMutability": "view",
      "type": "function"
    },
    {
      "inputs": [],
      "name": "description",
      "outputs": [
        {
          "internalType": "string",
          "name": "",
          "type": "string"
        }
      ],
      "stateMutability": "view",
      "type": "function"
    },
    {
      "inputs": [],
      "name": "donate",
      "outputs": [],
      "stateMutability": "payable",
      "type": "function"
    },
    {
      "inputs": [],
      "name": "image",
      "outputs": [
        {
          "internalType": "string",
          "name": "",
          "type": "string"
        }
      ],
      "stateMutability": "view",
      "type": "function"
    },
    {
      "inputs": [],
      "name": "owner",
      "outputs": [
        {
          "internalType": "address payable",
          "name": "",
          "type": "address"
        }
      ],
      "stateMutability": "view",
      "type": "function"
    },
    {
      "inputs": [],
      "name": "pdf",
      "outputs": [
        {
          "internalType": "string",
          "name": "",
          "type": "string"
        }
      ],
      "stateMutability": "view",
      "type": "function"
    },
    {
      "inputs": [],
      "name": "recievedAmount",
      "outputs": [
        {
          "internalType": "uint256",
          "name": "",
          "type": "uint256"
        }
      ],
      "stateMutability": "view",
      "type": "function"
    },
    {
      "inputs": [],
      "name": "requiredAmount",
      "outputs": [
        {
          "internalType": "uint256",
          "name": "",
          "type": "uint256"
        }
      ],
      "stateMutability": "view",
      "type": "function"
    },
    {
      "inputs": [],
      "name": "title",
      "outputs": [
        {
          "internalType": "string",
          "name": "",
          "type": "string"
        }
      ],
      "stateMutability": "view",
      "type": "function"
    }
  ],
  "bytecode": "0x60806040523480156200001157600080fd5b5060405162000faf38038062000faf833981810160405281019062000037919062000390565b85600090805190602001906200004f92919062000108565b5084600190805190602001906200006892919062000108565b508360028190555082600390805190602001906200008892919062000108565b508160049080519060200190620000a192919062000108565b508060059080519060200190620000ba92919062000108565b5033600660006101000a81548173ffffffffffffffffffffffffffffffffffffffff021916908373ffffffffffffffffffffffffffffffffffffffff1602179055505050505050506200052c565b8280546200011690620004f6565b90600052602060002090601f0160209004810192826200013a576000855562000186565b82601f106200015557805160ff191683800117855562000186565b8280016001018555821562000186579182015b828111156200018557825182559160200191906001019062000168565b5b50905062000195919062000199565b5090565b5b80821115620001b45760008160009055506001016200019a565b5090565b6000604051905090565b600080fd5b600080fd5b600080fd5b600080fd5b6000601f19601f8301169050919050565b7f4e487b7100000000000000000000000000000000000000000000000000000000600052604160045260246000fd5b6200022182620001d6565b810181811067ffffffffffffffff82111715620002435762000242620001e7565b5b80604052505050565b600062000258620001b8565b905062000266828262000216565b919050565b600067ffffffffffffffff821115620002895762000288620001e7565b5b6200029482620001d6565b9050602081019050919050565b60005b83811015620002c1578082015181840152602081019050620002a4565b83811115620002d1576000848401525b50505050565b6000620002ee620002e8846200026b565b6200024c565b9050828152602081018484840111156200030d576200030c620001d1565b5b6200031a848285620002a1565b509392505050565b600082601f8301126200033a5762000339620001cc565b5b81516200034c848260208601620002d7565b91505092915050565b6000819050919050565b6200036a8162000355565b81146200037657600080fd5b50565b6000815190506200038a816200035f565b92915050565b60008060008060008060c08789031215620003b057620003af620001c2565b5b600087015167ffffffffffffffff811115620003d157620003d0620001c7565b5b620003df89828a0162000322565b965050602087015167ffffffffffffffff811115620004035762000402620001c7565b5b6200041189828a0162000322565b95505060406200042489828a0162000379565b945050606087015167ffffffffffffffff811115620004485762000447620001c7565b5b6200045689828a0162000322565b935050608087015167ffffffffffffffff8111156200047a5762000479620001c7565b5b6200048889828a0162000322565b92505060a087015167ffffffffffffffff811115620004ac57620004ab620001c7565b5b620004ba89828a0162000322565b9150509295509295509295565b7f4e487b7100000000000000000000000000000000000000000000000000000000600052602260045260246000fd5b600060028204905060018216806200050f57607f821691505b60208210811415620005265762000525620004c7565b5b50919050565b610a73806200053c6000396000f3fe6080604052600436106100865760003560e01c80638da5cb5b116100595780638da5cb5b14610137578063a6c3e6b914610162578063d2d3d0161461018d578063ed88c68e146101b8578063f3ccaac0146101c257610086565b806348b9ef401461008b5780634a79d50c146100b65780634d012f58146100e15780637284e4161461010c575b600080fd5b34801561009757600080fd5b506100a06101ed565b6040516100ad91906106e1565b60405180910390f35b3480156100c257600080fd5b506100cb6101f3565b6040516100d89190610795565b60405180910390f35b3480156100ed57600080fd5b506100f6610281565b60405161010391906106e1565b60405180910390f35b34801561011857600080fd5b50610121610287565b60405161012e9190610795565b60405180910390f35b34801561014357600080fd5b5061014c610315565b60405161015991906107f8565b60405180910390f35b34801561016e57600080fd5b5061017761033b565b6040516101849190610795565b60405180910390f35b34801561019957600080fd5b506101a26103c9565b6040516101af9190610795565b60405180910390f35b6101c0610457565b005b3480156101ce57600080fd5b506101d761063a565b6040516101e49190610795565b60405180910390f35b60025481565b6000805461020090610842565b80601f016020809104026020016040519081016040528092919081815260200182805461022c90610842565b80156102795780601f1061024e57610100808354040283529160200191610279565b820191906000526020600020905b81548152906001019060200180831161025c57829003601f168201915b505050505081565b60075481565b6005805461029490610842565b80601f01602080910402602001604051908101604052809291908181526020018280546102c090610842565b801561030d5780601f106102e25761010080835404028352916020019161030d565b820191906000526020600020905b8154815290600101906020018083116102f057829003601f168201915b505050505081565b600660009054906101000a900473ffffffffffffffffffffffffffffffffffffffff1681565b6001805461034890610842565b80601f016020809104026020016040519081016040528092919081815260200182805461037490610842565b80156103c15780601f10610396576101008083540402835291602001916103c1565b820191906000526020600020905b8154815290600101906020018083116103a457829003601f168201915b505050505081565b600480546103d690610842565b80601f016020809104026020016040519081016040528092919081815260200182805461040290610842565b801561044f5780601f106104245761010080835404028352916020019161044f565b820191906000526020600020905b81548152906001019060200180831161043257829003601f168201915b505050505081565b6007546002541161049d576040517f08c379a0000000000000000000000000000000000000000000000000000000008152600401610494906108c0565b60405180910390fd5b600034116104e0576040517f08c379a00000000000000000000000000000000000000000000000000000000081526004016104d79061092c565b60405180910390fd5b600660009054906101000a900473ffffffffffffffffffffffffffffffffffffffff1673ffffffffffffffffffffffffffffffffffffffff163373ffffffffffffffffffffffffffffffffffffffff161415610571576040517f08c379a000000000000000000000000000000000000000000000000000000000815260040161056890610998565b60405180910390fd5b600660009054906101000a900473ffffffffffffffffffffffffffffffffffffffff1673ffffffffffffffffffffffffffffffffffffffff166108fc349081150290604051600060405180830381858888f193505050501580156105d9573d6000803e3d6000fd5b5034600760008282546105ec91906109e7565b9250508190555042343373ffffffffffffffffffffffffffffffffffffffff167fe6add99d06d9ad7fc456e746aa162eed6211c5002ef2dacdd67b8d2016822fba60405160405180910390a4565b6003805461064790610842565b80601f016020809104026020016040519081016040528092919081815260200182805461067390610842565b80156106c05780601f10610695576101008083540402835291602001916106c0565b820191906000526020600020905b8154815290600101906020018083116106a357829003601f168201915b505050505081565b6000819050919050565b6106db816106c8565b82525050565b60006020820190506106f660008301846106d2565b92915050565b600081519050919050565b600082825260208201905092915050565b60005b8381101561073657808201518184015260208101905061071b565b83811115610745576000848401525b50505050565b6000601f19601f8301169050919050565b6000610767826106fc565b6107718185610707565b9350610781818560208601610718565b61078a8161074b565b840191505092915050565b600060208201905081810360008301526107af818461075c565b905092915050565b600073ffffffffffffffffffffffffffffffffffffffff82169050919050565b60006107e2826107b7565b9050919050565b6107f2816107d7565b82525050565b600060208201905061080d60008301846107e9565b92915050565b7f4e487b7100000000000000000000000000000000000000000000000000000000600052602260045260246000fd5b6000600282049050600182168061085a57607f821691505b6020821081141561086e5761086d610813565b5b50919050565b7f726571756972642066756e64732066756c66696c6c6564000000000000000000600082015250565b60006108aa601783610707565b91506108b582610874565b602082019050919050565b600060208201905081810360008301526108d98161089d565b9050919050565b7f61646420736f6d65206d6f72652066756e647300000000000000000000000000600082015250565b6000610916601383610707565b9150610921826108e0565b602082019050919050565b6000602082019050818103600083015261094581610909565b9050919050565b7f63616e277420646f6e61746520746f20796f757273656c660000000000000000600082015250565b6000610982601883610707565b915061098d8261094c565b602082019050919050565b600060208201905081810360008301526109b181610975565b9050919050565b7f4e487b7100000000000000000000000000000000000000000000000000000000600052601160045260246000fd5b60006109f2826106c8565b91506109fd836106c8565b9250827fffffffffffffffffffffffffffffffffffffffffffffffffffffffffffffffff03821115610a3257610a316109b8565b5b82820190509291505056fea2646970667358221220f00ea00638b9b79db260302351d2659ccefea30c5d8b77462a78d4ea3a1946d764736f6c63430008090033",
  "linkReferences": {},
  "deployedLinkReferences": {}
}